:020000040000fa
:080000000002040000000000f2
:020000040000fa
:04000800c80200002a
:020000040000fa
:04000c00c802000026
:020000040000fa
:04001000c802000022
:020000040000fa
:04001400c80200001e
:020000040000fa
:04001800c80200001a
:020000040000fa
:04001c00c802000016
:020000040000fa
:04002000c802000012
:020000040000fa
:04002400c80200000e
:020000040000fa
:04002800c80200000a
:020000040000fa
:04002c00c802000006
:020000040000fa
:04003000c802000002
:020000040000fa
:04003400c8020000fe
:020000040000fa
:04003800c8020000fa
:020000040000fa
:04003c00c8020000f6
:020000040000fa
:04004000c8020000f2
:020000040000fa
:04004400c8020000ee
:020000040000fa
:04004800c8020000ea
:020000040000fa
:04004c00c8020000e6
:020000040000fa
:04005000c8020000e2
:020000040000fa
:04005400c8020000de
:020000040000fa
:04005800c8020000da
:020000040000fa
:04005c00c8020000d6
:020000040000fa
:04006000c8020000d2
:020000040000fa
:04006400c8020000ce
:020000040000fa
:04006800c8020000ca
:020000040000fa
:04006c00c8020000c6
:020000040000fa
:04007000c8020000c2
:020000040000fa
:04007400c8020000be
:020000040000fa
:04007800c8020000ba
:020000040000fa
:04007c00c8020000b6
:020000040000fa
:04008000c8020000b2
:020000040000fa
:04008400c8020000ae
:020000040000fa
:04008800c8020000aa
:020000040000fa
:04008c00c8020000a6
:020000040000fa
:04009000c8020000a2
:020000040000fa
:04009400c80200009e
:020000040000fa
:04009800c80200009a
:020000040000fa
:04009c00c802000096
:020000040000fa
:0400a000c802000092
:020000040000fa
:0400a400c80200008e
:020000040000fa
:0400a800c80200008a
:020000040000fa
:0400ac00c802000086
:020000040000fa
:0400b000c802000082
:020000040000fa
:0400b400c80200007e
:020000040000fa
:0400b800c80200007a
:020000040000fa
:0400bc00c802000076
:020000040000fa
:0400c000c802000072
:020000040000fa
:0400c400c80200006e
:020000040000fa
:0400c800c80200006a
:020000040000fa
:0400cc00c802000066
:020000040000fa
:0400d000c802000062
:020000040000fa
:0400d400c80200005e
:020000040000fa
:0400d800c80200005a
:020000040000fa
:0400dc00c802000056
:020000040000fa
:0400e000c802000052
:020000040000fa
:0400e400c80200004e
:020000040000fa
:0400e800c80200004a
:020000040000fa
:0400ec00c802000046
:020000040000fa
:0400f000c802000042
:020000040000fa
:0400f400c80200003e
:020000040000fa
:0400f800c80200003a
:020000040000fa
:0400fc00c802000036
:020000040000fa
:04010000c802000031
:020000040000fa
:04010400c80200002d
:020000040000fa
:04010800c802000029
:020000040000fa
:04010c00c802000025
:020000040000fa
:04011000c802000021
:020000040000fa
:04011400c80200001d
:020000040000fa
:04011800c802000019
:020000040000fa
:04011c00c802000015
:020000040000fa
:04012000c802000011
:020000040000fa
:04012400c80200000d
:020000040000fa
:04012800c802000009
:020000040000fa
:04012c00c802000005
:020000040000fa
:04013000c802000001
:020000040000fa
:04013400c8020000fd
:020000040000fa
:04020800c802000028
:020000040000fa
:04020c00c802000024
:020000040000fa
:04021000c802000020
:020000040000fa
:04021400c80200001c
:020000040000fa
:04021800c802000018
:020000040000fa
:04021c00c802000014
:020000040000fa
:04022000c802000010
:020000040000fa
:04022400c80200000c
:020000040000fa
:04022800c802000008
:020000040000fa
:04022c00c802000004
:020000040000fa
:04023000c802000000
:020000040000fa
:04023400c8020000fc
:020000040000fa
:04023800c8020000f8
:020000040000fa
:04023c00c8020000f4
:020000040000fa
:04024000c8020000f0
:020000040000fa
:04024400c8020000ec
:020000040000fa
:04024800c8020000e8
:020000040000fa
:04024c00c8020000e4
:020000040000fa
:04025000c8020000e0
:020000040000fa
:04025400c8020000dc
:020000040000fa
:04025800c8020000d8
:020000040000fa
:04025c00c8020000d4
:020000040000fa
:04026000c8020000d0
:020000040000fa
:04026400c8020000cc
:020000040000fa
:04026800c8020000c8
:020000040000fa
:04026c00c8020000c4
:020000040000fa
:04027000c8020000c0
:020000040000fa
:04027400c8020000bc
:020000040000fa
:04027800c8020000b8
:020000040000fa
:04027c00c8020000b4
:020000040000fa
:04028000c8020000b0
:020000040000fa
:04028400c8020000ac
:020000040000fa
:04028800c8020000a8
:020000040000fa
:04028c00c8020000a4
:020000040000fa
:04029000c8020000a0
:020000040000fa
:04029400c80200009c
:020000040000fa
:04029800c802000098
:020000040000fa
:04029c00c802000094
:020000040000fa
:0402a000c802000090
:020000040000fa
:0402a400c80200008c
:020000040000fa
:0402a800c802000088
:020000040000fa
:0402ac00c802000084
:020000040000fa
:0402b000c802000080
:020000040000fa
:0402b400c80200007c
:020000040000fa
:0402b800c802000078
:020000040000fa
:0402bc00c802000074
:020000040000fa
:0402c000c802000070
:020000040000fa
:0402c400c80200006c
:020000040000fa
:0402c800c802000068
:020000040000fa
:0402cc00c802000064
:020000040000fa
:0402d000c802000060
:020000040000fa
:0402d400c80200005c
:020000040000fa
:0402d800c802000058
:020000040000fa
:0402dc00c802000054
:020000040000fa
:0402e000c802000050
:020000040000fa
:0402e400c80200004c
:020000040000fa
:0402e800c802000048
:020000040000fa
:0402ec00c802000044
:020000040000fa
:0402f000c802000040
:020000040000fa
:0402f400c80200003c
:020000040000fa
:0402f800c802000038
:020000040000fa
:0402fc00c802000034
:020000040000fa
:04030000c80200002f
:020000040000fa
:04030400c80200002b
:020000040000fa
:04030800c802000027
:020000040000fa
:04030c00c802000023
:020000040000fa
:04031000c80200001f
:020000040000fa
:04031400c80200001b
:020000040000fa
:04031800c802000017
:020000040000fa
:04031c00c802000013
:020000040000fa
:04032000c80200000f
:020000040000fa
:04032400c80200000b
:020000040000fa
:04032800c802000007
:020000040000fa
:04032c00c802000003
:020000040000fa
:04033000c8020000ff
:020000040000fa
:04033400c8020000fb
:020000040000fa
:100400004f8020000e7f22000e01880000000000b7
:10041000000020000000e000020032000001200087
:1004200020028800140007005b0007000000e000c5
:1004300003003a00607d2000010020000200370028
:100440000000200001002000810f70000100320038
:1004500014000700000020000000e000020032004d
:100460000000020000000000b007020000000000d1
:100470000040da000000fe004440a900c002200055
:100480000000e0000300320000002000a00188000e
:100490004440a800000006008a1f78008b1f7800e7
:1004a0000000060091018800800478000000eb0045
:1004b0001a003700e284440032a0b4009905ba0063
:1004c000e284440032a0b4009906ba00e2844400f9
:1004d00032a0b4000006eb00476fde00fd07b2005b
:1004e000636ce10003003a00ebff07000000eb0043
:1004f0000a003700606ce10004003a00005deb0088
:100500008b05e900fdff3e00040037006168e10053
:10051000010032000086eb000b00070019c7ba008b
:100520001905ba000e04e00003003a000a00e000da
:10053000e0ff3a0000000600fe07b2009e018800be
:100540008a047800f5ff3700395dba008b05e900b1
:100550000c003200295dba008b05e900080032006a
:100560000c00e00003003a00e284440032a0b40032
:10057000f5ff370019ddba008b05e900faff3a00f4
:100580008904e800e184440032a0b40000000600c1
:100590000040da000000fe00000005008000780046
:1005a000040037003104e00002003a00000051006e
:1005b00000000600010178000108a300f9ff3a00dd
:1005c0008101780031017800f4ef2f00020242002f
:1005d0000281ea00020162000408280004016100af
:1005e000f7ff320083007800010178003104e00059
:0c05f000fdff3a00000051000000060072
:020000040000fa
:1005fc00506900007a7a00006572000069610000a1
:10060c0020740000616e0000696f00004000000063
:10061c0020250000204d00006567000061200000cf
:10062c00726100006261000074790000206e0000ad
:10063c0061200000777300007a7900007374000069
:08064c006b6f000021000000ab
:020000040000fa
:100654000000fa00f03f20001030880030382800f5
:1006640000308800100020006030880000882300db
:100674001100200018010700008823001100200049
:10068400150107000426ef003003200040308800e5
:1006940050032000010020000f0107000426ef0092
:1006a4002003200040308800500320000100200077
:1006b400090107000426ef00800320004030880071
:1006c4005003200001002000030107000426ef006e
:1006d400c0002000403088005003200001002000aa
:1006e400fd0007000426ef00600020004030880071
:1006f4005003200001002000f70007006d000700f0
:1007040010c0b3000080fa00000006000400fa00e4
:10071400000f7800110798000a0037001e007800c7
:10072400104078000000fb000000e00011003200df
:100734001e007800104078001e0fe800100007002b
:10074400000000001e00900000f0a7000000ea0076
:100754000000ea004f00de00004078009e00900098
:100764008100e900110798000004e000ebff3a0063
:1007740001003700000000000080fa0000000600bd
:100784000200fa00004f78001e00fb00ea0f500040
:100794000e003200ea0f500003003c00e80f500046
:1007a400150032001b003700ec0f50001700320018
:1007b400ed0f500017003a0002c8bf00ea4f500086
:1007c400360032004c0007003500370002c8bf0075
:1007d400ed4f5000010032004700070000c8bf0081
:1007e4000004e00002003a00b00007002c003700cb
:1007f400a30007002a0037005300070000c2b3001b
:10080400dfff07005000070025003700290007001c
:100814002300370001c8bf00f04f500014003a0015
:100824000168ef0000c8bf000004e00009003a00be
:100834000426ef00000c2000403088005003200004
:1008440001002000a400070010c0b30000e8b700b6
:10085400070037000426ef0000082000403088001d
:1008640050032000010020009b0007000068ef00f7
:1008740010002000203088001e00fb00403088005b
:1008840050032000010020009300070001c8bf00ae
:100894000040e80001e8b700010037000000000054
:1008a4001e41780021802000824878000080fa00f0
:1008b400000006000000fa000426ef0010002000eb
:1008c40040308800a088200001002000820007003a
:1008d4000426ef002000200040308800a08820007b
:1008e400010020007c0007000068ef000168ef00b1
:1008f4000080fa00000006000000fa0000c8bf00f3
:100904000004e00007003a000426ef00000820007d
:100914004030880050032000010020006e000700d2
:10092400060037000426ef00000c20004030880049
:100934005003200001002000670007000168ef0059
:100944000080fa00000006000200fa0001c8bf009f
:100954000004e0001c003a0000c8bf000004e000ee
:1009640009003a000426ef00000c20004030880003
:1009740050032000010020005700070010c0b300fe
:1009840000e8b700070037000426ef000008200045
:100994004030880050032000010020004e00070072
:1009a4000068ef000040eb00004f780002003700c1
:1009b400100007001e4fe8001e407800ee4f500064
:1009c400fbff36000900370001c8bf000040e90002
:1009d40001e8b7000426ef00000120004030880041
:1009e40050032000010020003b0007000080fa00b3
:1009f400000006000000fa000426ef004001200079
:100a0400403088005003200001002000320007001d
:100a140001c8bf000040e80001e8b70001c8bf00fa
:100a2400f04f500014003a000168ef0000c8bf0006
:100a34000004e00009003a000426ef00000c200046
:100a440040308800500320000100200022000700ed
:100a540010c0b30000e8b700070037000426ef0019
:100a640000082000403088005003200001002000ce
:100a7400190007000068ef000080fa00000006007b
:100a84000200fa000040eb00004f7800020037003b
:100a9400adff07001e4fe8001e407800ef4f5000e6
:100aa400fbff36000080fa00000006000200fa0096
:100ab4000040eb00004f780002003700cdff070034
:100ac4001e4fe8001e407800ef4f5000fbff360039
:100ad4000080fa00000006000400fa00008fbe0047
:100ae40005003700000000000081eb008081eb006e
:100af4001e0f41005e9749001e00be00e00f50002b
:100b0400e08f5800f7ff3a000080fa00000006006a
:100b14000200fa00004f78001e4078000004e00054
:100b2400070032000426ef00f00020004030880067
:100b34005003200001002000e7ff070006003700f3
:100b44000426ef00c000200040308800500320003d
:100b540001002000e0ff07000080fa00000006000a
:100b64000400fa00100798001e009000e40f5000e3
:100b740004003200e50f50000400320000c0eb0016
:100b840010003700000000000100370000000000e2
:100b94001e0090000d000700d1cc2c000100b8000d
:100ba4004308de00004f780040c6b3009e40780042
:100bb40080cf50000200360040c6b300004f7800da
:100bc4001e4078000080fa00000006000400fa00cd
:100bd400100798001e009000e40f5000040032003b
:100be400e50f5000040032000080eb001f003700c6
:100bf4000000000001003700000000009e0090008b
:100c0400411988002023a8000000eb00000f7800a1
:100c140002003700000000001e0fe800703e2000b4
:100c24009e007800808f5000faff36002023a90030
:100c34000000eb00000f7800020037000000000005
:100c44001e0fe800703e20009e007800808f500048
:100c5400faff360000000000001980006100600007
:100c64000000e000fcff3200001880000080fa0061
:100c7400000006000200fa00000f78001e00780051
:100c8400e40f500005003200e50f500006003a0062
:100c94002ca3a90010c0b300040037002c83a900c2
:100ca40010c0b300010037000040eb000080fa00e0
:100cb400000006000200fa00000f78001e00780011
:100cc4000000e0001a003a0011198000f0ff210032
:100cd400008060001019880000c0eb0024e3b70016
:100ce40001198000f0f12f000080600000198800d5
:100cf40021198000f00f2e000080600000c0a000c9
:100d04002019880001198000f0cf2f0000806000b6
:100d1400001988001119800030fc2f000080600049
:100d24001019880021e3a80010c0b30001003700a7
:100d34000040eb000080fa00000006000200fa0008
:100d4400000f78001e007800e20f500013003200fc
:100d5400e20f500003003e00e10f50000600320095
:100d640029003700e30f500015003200e40f500053
:100d74001c00320024003700a1168000000420006b
:100d84000080600000f0a7000000ea000000e90015
:100d94004f00de00004078001c003700a1168000e0
:100da400000820000080600000f0a7000000ea00b6
:100db4000000e9004f00de00004078001300370017
:100dc40011168000000820000080600000f0a700d9
:100dd4000000ea000000e9004f00de000040780057
:100de4000a003700a1168000000022000080600085
:100df40000f0a7000000ea000000e9004f00de0058
:100e040000407800010037000040eb000080fa0049
:100e1400000006000200fa00000f78001e007800af
:100e2400e20f50000c003200e20f500003003e00bd
:100e3400e10f5000060032000d003700e30f5000b0
:100e440007003200e40f50000700320008003700aa
:100e5400d2c2a80006003700d2e2a800040037007e
:100e6400c0e2a80002003700d3a2a80000000000de
:100e74000080fa00000006000000fa008dfe070062
:100e840001012000e02f280020fe070000402d0073
:100e940001032000360007000080fa00000006006d
:100ea4001a00fa00e0302800200798002e00900075
:100eb400b9fd0700300798000000eb00000f780030
:100ec400210037000000eb001007980011003700e4
:100ed4001e0090009e0040003e009000000178003b
:100ee400110009008200d8008000fd00ae009000cf
:100ef4000080400090407800680147001e00900088
:100f040000004100014878001e0090000000e80045
:100f1400100798001e009000ef0f5000ecff340003
:100f24000040eb00005f980062fe07006800470085
:100f340001012000f5fd070000902000d1032000ee
:100f44000b0007001e0fe8003e0090009e00780092
:100f5400808f5000dbff3500d7ff37000000fa0018
:100f6400bbfd0700c4ff0700cdff0700ffff3700ec
:020000040000fa
:100f7400f03fb1000180b10006003500ee03090026
:100f840000000000403fb1000180b100fbff3d00c4
:100f94001000b000203fb0000200350000800900be
:080fa40000000000000006003f
:020000040000fa
:100fac000008000004000000000000000000000029
:00000001FF
